{
  "contractName": "Bounty",
  "abi": [
    {
      "inputs": [],
      "payable": false,
      "stateMutability": "nonpayable",
      "type": "constructor"
    },
    {
      "constant": true,
      "inputs": [],
      "name": "currState",
      "outputs": [
        {
          "internalType": "enum Bounty.State",
          "name": "",
          "type": "uint8"
        }
      ],
      "payable": false,
      "stateMutability": "view",
      "type": "function"
    },
    {
      "constant": true,
      "inputs": [],
      "name": "hunter",
      "outputs": [
        {
          "internalType": "address payable",
          "name": "",
          "type": "address"
        }
      ],
      "payable": false,
      "stateMutability": "view",
      "type": "function"
    },
    {
      "constant": true,
      "inputs": [],
      "name": "name",
      "outputs": [
        {
          "internalType": "string",
          "name": "",
          "type": "string"
        }
      ],
      "payable": false,
      "stateMutability": "view",
      "type": "function"
    },
    {
      "constant": true,
      "inputs": [],
      "name": "source",
      "outputs": [
        {
          "internalType": "address",
          "name": "",
          "type": "address"
        }
      ],
      "payable": false,
      "stateMutability": "view",
      "type": "function"
    },
    {
      "constant": false,
      "inputs": [],
      "name": "fund",
      "outputs": [],
      "payable": true,
      "stateMutability": "payable",
      "type": "function"
    },
    {
      "constant": false,
      "inputs": [],
      "name": "claim",
      "outputs": [],
      "payable": false,
      "stateMutability": "nonpayable",
      "type": "function"
    },
    {
      "constant": false,
      "inputs": [],
      "name": "confirmBounty",
      "outputs": [],
      "payable": false,
      "stateMutability": "nonpayable",
      "type": "function"
    }
  ],
  "bytecode": "0x608060405234801561001057600080fd5b50336001806101000a81548173ffffffffffffffffffffffffffffffffffffffff021916908373ffffffffffffffffffffffffffffffffffffffff1602179055506000600160006101000a81548160ff0219169083600381111561007057fe5b02179055506107de806100846000396000f3fe6080604052600436106100705760003560e01c80634e71d92d1161004e5780634e71d92d1461017357806367e828bf1461018a578063afe01043146101e1578063b60d42881461021a57610070565b806306fdde0314610075578063089fa3ef146101055780631602f7b01461011c575b600080fd5b34801561008157600080fd5b5061008a610224565b6040518080602001828103825283818151815260200191508051906020019080838360005b838110156100ca5780820151818401526020810190506100af565b50505050905090810190601f1680156100f75780820380516001836020036101000a031916815260200191505b509250505060405180910390f35b34801561011157600080fd5b5061011a6102c2565b005b34801561012857600080fd5b50610131610491565b604051808273ffffffffffffffffffffffffffffffffffffffff1673ffffffffffffffffffffffffffffffffffffffff16815260200191505060405180910390f35b34801561017f57600080fd5b506101886104b7565b005b34801561019657600080fd5b5061019f6105c4565b604051808273ffffffffffffffffffffffffffffffffffffffff1673ffffffffffffffffffffffffffffffffffffffff16815260200191505060405180910390f35b3480156101ed57600080fd5b506101f66105e9565b6040518082600381111561020657fe5b60ff16815260200191505060405180910390f35b6102226105fc565b005b60008054600181600116156101000203166002900480601f0160208091040260200160405190810160405280929190818152602001828054600181600116156101000203166002900480156102ba5780601f1061028f576101008083540402835291602001916102ba565b820191906000526020600020905b81548152906001019060200180831161029d57829003601f168201915b505050505081565b6001809054906101000a900473ffffffffffffffffffffffffffffffffffffffff1673ffffffffffffffffffffffffffffffffffffffff163373ffffffffffffffffffffffffffffffffffffffff1614610367576040517f08c379a00000000000000000000000000000000000000000000000000000000081526004018080602001828103825260278152602001806107626027913960400191505060405180910390fd5b6002600381111561037457fe5b600160009054906101000a900460ff16600381111561038f57fe5b14610402576040517f08c379a000000000000000000000000000000000000000000000000000000000815260040180806020018281038252601e8152602001807f43616e6e6f7420636f6e6669726d20776974686f75742066756e64696e67000081525060200191505060405180910390fd5b600260009054906101000a900473ffffffffffffffffffffffffffffffffffffffff1673ffffffffffffffffffffffffffffffffffffffff166108fc479081150290604051600060405180830381858888f1935050505015801561046a573d6000803e3d6000fd5b506003600160006101000a81548160ff0219169083600381111561048a57fe5b0217905550565b600260009054906101000a900473ffffffffffffffffffffffffffffffffffffffff1681565b6001809054906101000a900473ffffffffffffffffffffffffffffffffffffffff1673ffffffffffffffffffffffffffffffffffffffff163373ffffffffffffffffffffffffffffffffffffffff16141561055d576040517f08c379a00000000000000000000000000000000000000000000000000000000081526004018080602001828103825260218152602001806107896021913960400191505060405180910390fd5b33600260006101000a81548173ffffffffffffffffffffffffffffffffffffffff021916908373ffffffffffffffffffffffffffffffffffffffff1602179055506002600160006101000a81548160ff021916908360038111156105bd57fe5b0217905550565b6001809054906101000a900473ffffffffffffffffffffffffffffffffffffffff1681565b600160009054906101000a900460ff1681565b6001809054906101000a900473ffffffffffffffffffffffffffffffffffffffff1673ffffffffffffffffffffffffffffffffffffffff163373ffffffffffffffffffffffffffffffffffffffff16146106a1576040517f08c379a00000000000000000000000000000000000000000000000000000000081526004018080602001828103825260278152602001806107626027913960400191505060405180910390fd5b600060038111156106ae57fe5b600160009054906101000a900460ff1660038111156106c957fe5b1461073c576040517f08c379a000000000000000000000000000000000000000000000000000000000815260040180806020018281038252600e8152602001807f416c72656164792066756e64656400000000000000000000000000000000000081525060200191505060405180910390fd5b60018060006101000a81548160ff0219169083600381111561075a57fe5b021790555056fe4f6e6c7920626f756e747920736f757263652063616e2063616c6c2074686973206d6574686f64426f756e747920736f757263652063616e6e6f7420636c61696d20626f756e7479a265627a7a7231582051d0e2c7bd5a1a59a8e1b11edb1e665d0f7a8808181c56be07a002706f707f6764736f6c63430005100032",
  "source": "pragma solidity ^0.5.0;\r\n\r\ncontract Bounty {\r\n    string public name;\r\n    enum State { AWAITING_PAYMENT, AWAITING_HUNTER, AWAITING_DELIVERY, COMPLETE }\r\n    State public currState;\r\n    \r\n    address public source;\r\n    address payable public hunter;\r\n\r\n    constructor() public {\r\n        source = msg.sender;\r\n        currState = State.AWAITING_PAYMENT;\r\n    }\r\n\r\n    modifier onlySource() {\r\n        require(msg.sender == source, \"Only bounty source can call this method\");\r\n        _;\r\n    }\r\n\r\n    function fund() onlySource external payable {\r\n        require(currState == State.AWAITING_PAYMENT, \"Already funded\");\r\n        currState = State.AWAITING_HUNTER;\r\n    }\r\n\r\n    function claim() external {\r\n        require(msg.sender != source, \"Bounty source cannot claim bounty\");\r\n        hunter = msg.sender;\r\n        currState = State.AWAITING_DELIVERY;\r\n    }\r\n\r\n    function confirmBounty() onlySource external {\r\n        require(currState == State.AWAITING_DELIVERY, \"Cannot confirm without funding\");\r\n        hunter.transfer(address(this).balance);\r\n        currState = State.COMPLETE;\r\n    }\r\n}\r\n",
  "sourcePath": "C:/Users/dvarg/Developer/dvargas92495/roamjs-daogigs/src/contracts/Bounty.sol",
  "compiler": {
    "name": "solc",
    "version": "0.5.16+commit.9c3226ce.Emscripten.clang"
  },
  "schemaVersion": "3.2.4",
  "updatedAt": "2021-09-19T04:05:49.266Z",
  "networkType": "ethereum",
  "devdoc": {
    "methods": {}
  },
  "userdoc": {
    "methods": {}
  }
}