{
  "contractName": "Bounty",
  "abi": [
    {
      "inputs": [
        {
          "internalType": "address",
          "name": "source",
          "type": "address"
        }
      ],
      "stateMutability": "payable",
      "type": "constructor"
    },
    {
      "inputs": [],
      "name": "currState",
      "outputs": [
        {
          "internalType": "enum Bounty.State",
          "name": "",
          "type": "uint8"
        }
      ],
      "stateMutability": "view",
      "type": "function"
    },
    {
      "inputs": [],
      "name": "hunter",
      "outputs": [
        {
          "internalType": "address",
          "name": "",
          "type": "address"
        }
      ],
      "stateMutability": "view",
      "type": "function"
    },
    {
      "inputs": [
        {
          "internalType": "address",
          "name": "",
          "type": "address"
        }
      ],
      "name": "sources",
      "outputs": [
        {
          "internalType": "uint256",
          "name": "",
          "type": "uint256"
        }
      ],
      "stateMutability": "view",
      "type": "function"
    },
    {
      "inputs": [],
      "name": "tokenType",
      "outputs": [
        {
          "internalType": "string",
          "name": "",
          "type": "string"
        }
      ],
      "stateMutability": "view",
      "type": "function"
    },
    {
      "inputs": [],
      "name": "fund",
      "outputs": [],
      "stateMutability": "payable",
      "type": "function"
    },
    {
      "inputs": [],
      "name": "claim",
      "outputs": [],
      "stateMutability": "nonpayable",
      "type": "function"
    },
    {
      "inputs": [],
      "name": "confirmBounty",
      "outputs": [],
      "stateMutability": "nonpayable",
      "type": "function"
    }
  ],
  "bytecode": "0x60806040526040518060400160405280600581526020017f45544845520000000000000000000000000000000000000000000000000000008152506003908051906020019062000051929190620000ef565b5060405162000fa338038062000fa38339818101604052810190620000779190620001b6565b34600160008373ffffffffffffffffffffffffffffffffffffffff1673ffffffffffffffffffffffffffffffffffffffff1681526020019081526020016000208190555060008060006101000a81548160ff02191690836002811115620000e357620000e262000252565b5b021790555050620002cf565b828054620000fd906200021c565b90600052602060002090601f0160209004810192826200012157600085556200016d565b82601f106200013c57805160ff19168380011785556200016d565b828001600101855582156200016d579182015b828111156200016c5782518255916020019190600101906200014f565b5b5090506200017c919062000180565b5090565b5b808211156200019b57600081600090555060010162000181565b5090565b600081519050620001b081620002b5565b92915050565b600060208284031215620001cf57620001ce620002b0565b5b6000620001df848285016200019f565b91505092915050565b6000620001f582620001fc565b9050919050565b600073ffffffffffffffffffffffffffffffffffffffff82169050919050565b600060028204905060018216806200023557607f821691505b602082108114156200024c576200024b62000281565b5b50919050565b7f4e487b7100000000000000000000000000000000000000000000000000000000600052602160045260246000fd5b7f4e487b7100000000000000000000000000000000000000000000000000000000600052602260045260246000fd5b600080fd5b620002c081620001e8565b8114620002cc57600080fd5b50565b610cc480620002df6000396000f3fe6080604052600436106100705760003560e01c80634e71d92d1161004e5780634e71d92d146100e2578063afe01043146100f9578063b60d428814610124578063b750bdde1461012e57610070565b8063089fa3ef146100755780631602f7b01461008c57806330fa738c146100b7575b600080fd5b34801561008157600080fd5b5061008a61016b565b005b34801561009857600080fd5b506100a16103ea565b6040516100ae919061084e565b60405180910390f35b3480156100c357600080fd5b506100cc610410565b6040516100d99190610884565b60405180910390f35b3480156100ee57600080fd5b506100f761049e565b005b34801561010557600080fd5b5061010e6105ca565b60405161011b9190610869565b60405180910390f35b61012c6105db565b005b34801561013a57600080fd5b50610155600480360381019061015091906106d4565b6106a7565b6040516101629190610946565b60405180910390f35b6000600160003373ffffffffffffffffffffffffffffffffffffffff1673ffffffffffffffffffffffffffffffffffffffff16815260200190815260200160002054116101ed576040517f08c379a00000000000000000000000000000000000000000000000000000000081526004016101e4906108a6565b60405180910390fd5b6001600281111561020157610200610ad3565b5b60008054906101000a900460ff16600281111561022157610220610ad3565b5b14610261576040517f08c379a000000000000000000000000000000000000000000000000000000000815260040161025890610906565b60405180910390fd5b6000600260009054906101000a900473ffffffffffffffffffffffffffffffffffffffff1673ffffffffffffffffffffffffffffffffffffffff16600160003373ffffffffffffffffffffffffffffffffffffffff1673ffffffffffffffffffffffffffffffffffffffff168152602001908152602001600020546040516102e890610839565b60006040518083038185875af1925050503d8060008114610325576040519150601f19603f3d011682016040523d82523d6000602084013e61032a565b606091505b505090508061036e576040517f08c379a0000000000000000000000000000000000000000000000000000000008152600401610365906108c6565b60405180910390fd5b6000600160003373ffffffffffffffffffffffffffffffffffffffff1673ffffffffffffffffffffffffffffffffffffffff1681526020019081526020016000208190555060004714156103e75760026000806101000a81548160ff021916908360028111156103e1576103e0610ad3565b5b02179055505b50565b600260009054906101000a900473ffffffffffffffffffffffffffffffffffffffff1681565b6003805461041d90610a72565b80601f016020809104026020016040519081016040528092919081815260200182805461044990610a72565b80156104965780601f1061046b57610100808354040283529160200191610496565b820191906000526020600020905b81548152906001019060200180831161047957829003601f168201915b505050505081565b6000600160003373ffffffffffffffffffffffffffffffffffffffff1673ffffffffffffffffffffffffffffffffffffffff1681526020019081526020016000205414801561051e5750600060028111156104fc576104fb610ad3565b5b60008054906101000a900460ff16600281111561051c5761051b610ad3565b5b145b61055d576040517f08c379a000000000000000000000000000000000000000000000000000000000815260040161055490610926565b60405180910390fd5b33600260006101000a81548173ffffffffffffffffffffffffffffffffffffffff021916908373ffffffffffffffffffffffffffffffffffffffff16021790555060016000806101000a81548160ff021916908360028111156105c3576105c2610ad3565b5b0217905550565b60008054906101000a900460ff1681565b600060028111156105ef576105ee610ad3565b5b60008054906101000a900460ff16600281111561060f5761060e610ad3565b5b1461064f576040517f08c379a0000000000000000000000000000000000000000000000000000000008152600401610646906108e6565b60405180910390fd5b34600160003373ffffffffffffffffffffffffffffffffffffffff1673ffffffffffffffffffffffffffffffffffffffff168152602001908152602001600020600082825461069e9190610988565b92505081905550565b60016020528060005260406000206000915090505481565b6000813590506106ce81610c77565b92915050565b6000602082840312156106ea576106e9610b31565b5b60006106f8848285016106bf565b91505092915050565b61070a816109de565b82525050565b61071981610a2d565b82525050565b600061072a82610961565b6107348185610977565b9350610744818560208601610a3f565b61074d81610b36565b840191505092915050565b6000610765602983610977565b915061077082610b47565b604082019050919050565b6000610788601483610977565b915061079382610b96565b602082019050919050565b60006107ab600f83610977565b91506107b682610bbf565b602082019050919050565b60006107ce601c83610977565b91506107d982610be8565b602082019050919050565b60006107f160008361096c565b91506107fc82610c11565b600082019050919050565b6000610814602183610977565b915061081f82610c14565b604082019050919050565b61083381610a23565b82525050565b6000610844826107e4565b9150819050919050565b60006020820190506108636000830184610701565b92915050565b600060208201905061087e6000830184610710565b92915050565b6000602082019050818103600083015261089e818461071f565b905092915050565b600060208201905081810360008301526108bf81610758565b9050919050565b600060208201905081810360008301526108df8161077b565b9050919050565b600060208201905081810360008301526108ff8161079e565b9050919050565b6000602082019050818103600083015261091f816107c1565b9050919050565b6000602082019050818103600083015261093f81610807565b9050919050565b600060208201905061095b600083018461082a565b92915050565b600081519050919050565b600081905092915050565b600082825260208201905092915050565b600061099382610a23565b915061099e83610a23565b9250827fffffffffffffffffffffffffffffffffffffffffffffffffffffffffffffffff038211156109d3576109d2610aa4565b5b828201905092915050565b60006109e982610a03565b9050919050565b60008190506109fe82610c63565b919050565b600073ffffffffffffffffffffffffffffffffffffffff82169050919050565b6000819050919050565b6000610a38826109f0565b9050919050565b60005b83811015610a5d578082015181840152602081019050610a42565b83811115610a6c576000848401525b50505050565b60006002820490506001821680610a8a57607f821691505b60208210811415610a9e57610a9d610b02565b5b50919050565b7f4e487b7100000000000000000000000000000000000000000000000000000000600052601160045260246000fd5b7f4e487b7100000000000000000000000000000000000000000000000000000000600052602160045260246000fd5b7f4e487b7100000000000000000000000000000000000000000000000000000000600052602260045260246000fd5b600080fd5b6000601f19601f8301169050919050565b7f4f6e6c79206120626f756e747920736f757263652063616e2063616c6c20746860008201527f6973206d6574686f640000000000000000000000000000000000000000000000602082015250565b7f455448207472616e73666572206661696c65642e000000000000000000000000600082015250565b7f416c726561647920636c61696d65640000000000000000000000000000000000600082015250565b7f43616e6e6f7420636f6e6669726d20776974686f757420636c61696d00000000600082015250565b50565b7f426f756e747920736f757263652063616e6e6f7420636c61696d20626f756e7460008201527f7900000000000000000000000000000000000000000000000000000000000000602082015250565b60038110610c7457610c73610ad3565b5b50565b610c80816109de565b8114610c8b57600080fd5b5056fea264697066735822122092cade82b4e7fb15369a7093ed6dcf90d8fa0514bbe2313c26db43a69f88b24064736f6c63430008070033",
  "immutableReferences": {},
  "source": "// SPDX-License-Identifier: MIT\r\npragma solidity ^0.8.7;\r\n\r\ncontract Bounty {\r\n  enum State {\r\n    AWAITING_HUNTER,\r\n    AWAITING_DELIVERY,\r\n    COMPLETE\r\n  }\r\n  State public currState;\r\n\r\n  mapping(address => uint256) public sources;\r\n  address public hunter;\r\n  string public tokenType = \"ETHER\";\r\n\r\n  constructor(address source) payable {\r\n    sources[source] = msg.value;\r\n    currState = State.AWAITING_HUNTER;\r\n  }\r\n\r\n  function fund() external payable {\r\n    require(currState == State.AWAITING_HUNTER, \"Already claimed\");\r\n    sources[msg.sender] += msg.value;\r\n  }\r\n\r\n  function claim() external {\r\n    require(\r\n      sources[msg.sender] == 0 && currState == State.AWAITING_HUNTER,\r\n      \"Bounty source cannot claim bounty\"\r\n    );\r\n    hunter = msg.sender;\r\n    currState = State.AWAITING_DELIVERY;\r\n  }\r\n\r\n  function confirmBounty() external {\r\n    require(\r\n      sources[msg.sender] > 0,\r\n      \"Only a bounty source can call this method\"\r\n    );\r\n    require(\r\n      currState == State.AWAITING_DELIVERY,\r\n      \"Cannot confirm without claim\"\r\n    );\r\n    (bool success, ) = hunter.call{ value: sources[msg.sender] }(\"\");\r\n    require(success, \"ETH transfer failed.\");\r\n    sources[msg.sender] = 0;\r\n    if (address(this).balance == 0) {\r\n      currState = State.COMPLETE;\r\n    } \r\n  }\r\n}\r\n",
  "sourcePath": "C:\\Users\\dvarg\\Developer\\dvargas92495\\roamjs-daogigs\\src\\contracts\\Bounty.sol",
  "compiler": {
    "name": "solc",
    "version": "0.8.7+commit.e28d00a7.Emscripten.clang"
  },
  "schemaVersion": "3.2.4",
  "updatedAt": "2021-09-20T18:05:20.972Z",
  "devdoc": {
    "kind": "dev",
    "methods": {},
    "version": 1
  },
  "userdoc": {
    "kind": "user",
    "methods": {},
    "version": 1
  }
}