{
  "contractName": "BountyFactory",
  "abi": [
    {
      "inputs": [],
      "stateMutability": "nonpayable",
      "type": "constructor"
    },
    {
      "anonymous": false,
      "inputs": [
        {
          "indexed": false,
          "internalType": "uint256",
          "name": "id",
          "type": "uint256"
        }
      ],
      "name": "BountyDeployed",
      "type": "event"
    },
    {
      "inputs": [
        {
          "internalType": "uint256",
          "name": "",
          "type": "uint256"
        }
      ],
      "name": "bounties",
      "outputs": [
        {
          "internalType": "contract Bounty",
          "name": "",
          "type": "address"
        }
      ],
      "stateMutability": "view",
      "type": "function",
      "constant": true
    },
    {
      "inputs": [],
      "name": "bountyCount",
      "outputs": [
        {
          "internalType": "uint256",
          "name": "",
          "type": "uint256"
        }
      ],
      "stateMutability": "view",
      "type": "function",
      "constant": true
    },
    {
      "inputs": [],
      "name": "deploy",
      "outputs": [],
      "stateMutability": "payable",
      "type": "function",
      "payable": true
    }
  ],
  "bytecode": "0x60806040526000805534801561001457600080fd5b50611112806100246000396000f3fe6080604052600436106100345760003560e01c80633e362c9614610039578063775c300c14610064578063dc2f87441461006e575b600080fd5b34801561004557600080fd5b5061004e6100ab565b60405161005b9190610271565b60405180910390f35b61006c6100b1565b005b34801561007a57600080fd5b50610095600480360381019061009091906101e1565b61018c565b6040516100a29190610256565b60405180910390f35b60005481565b60008060008154809291906100c5906102fe565b91905055905034336040516100d9906101bf565b6100e3919061023b565b6040518091039082f0905080158015610100573d6000803e3d6000fd5b506001600083815260200190815260200160002060006101000a81548173ffffffffffffffffffffffffffffffffffffffff021916908373ffffffffffffffffffffffffffffffffffffffff1602179055507f616a249b25cc48859fbb7d2a1fecf56c7f7fecb6dec087b6b81c15be78a7a85c816040516101819190610271565b60405180910390a150565b60016020528060005260406000206000915054906101000a900473ffffffffffffffffffffffffffffffffffffffff1681565b610d4a8061039383390190565b6000813590506101db8161037b565b92915050565b6000602082840312156101f7576101f6610376565b5b6000610205848285016101cc565b91505092915050565b6102178161028c565b82525050565b610226816102c8565b82525050565b610235816102be565b82525050565b6000602082019050610250600083018461020e565b92915050565b600060208201905061026b600083018461021d565b92915050565b6000602082019050610286600083018461022c565b92915050565b60006102978261029e565b9050919050565b600073ffffffffffffffffffffffffffffffffffffffff82169050919050565b6000819050919050565b60006102d3826102da565b9050919050565b60006102e5826102ec565b9050919050565b60006102f78261029e565b9050919050565b6000610309826102be565b91507fffffffffffffffffffffffffffffffffffffffffffffffffffffffffffffffff82141561033c5761033b610347565b5b600182019050919050565b7f4e487b7100000000000000000000000000000000000000000000000000000000600052601160045260246000fd5b600080fd5b610384816102be565b811461038f57600080fd5b5056fe608060405260405162000d4a38038062000d4a8339818101604052810190620000299190620000fe565b600034116200006f576040517f08c379a0000000000000000000000000000000000000000000000000000000008152600401620000669062000157565b60405180910390fd5b34600160008373ffffffffffffffffffffffffffffffffffffffff1673ffffffffffffffffffffffffffffffffffffffff1681526020019081526020016000208190555060008060006101000a81548160ff02191690836002811115620000db57620000da620001be565b5b02179055505062000235565b600081519050620000f8816200021b565b92915050565b600060208284031215620001175762000116620001ed565b5b60006200012784828501620000e7565b91505092915050565b60006200013f60168362000179565b91506200014c82620001f2565b602082019050919050565b60006020820190508181036000830152620001728162000130565b9050919050565b600082825260208201905092915050565b600062000197826200019e565b9050919050565b600073ffffffffffffffffffffffffffffffffffffffff82169050919050565b7f4e487b7100000000000000000000000000000000000000000000000000000000600052602160045260246000fd5b600080fd5b7f626f6f20776865726520746865206d6f6e657920617400000000000000000000600082015250565b62000226816200018a565b81146200023257600080fd5b50565b610b0580620002456000396000f3fe6080604052600436106100555760003560e01c8063089fa3ef1461005a5780631602f7b0146100715780634e71d92d1461009c578063afe01043146100b3578063b60d4288146100de578063b750bdde146100e8575b600080fd5b34801561006657600080fd5b5061006f610125565b005b34801561007d57600080fd5b50610086610355565b6040516100939190610761565b60405180910390f35b3480156100a857600080fd5b506100b161037b565b005b3480156100bf57600080fd5b506100c861046a565b6040516100d5919061077c565b60405180910390f35b6100e661047b565b005b3480156100f457600080fd5b5061010f600480360381019061010a9190610620565b6105f3565b60405161011c9190610837565b60405180910390f35b6000600160003373ffffffffffffffffffffffffffffffffffffffff1673ffffffffffffffffffffffffffffffffffffffff16815260200190815260200160002054116101a7576040517f08c379a000000000000000000000000000000000000000000000000000000000815260040161019e90610797565b60405180910390fd5b600160028111156101bb576101ba610954565b5b60008054906101000a900460ff1660028111156101db576101da610954565b5b1461021b576040517f08c379a0000000000000000000000000000000000000000000000000000000008152600401610212906107b7565b60405180910390fd5b60026000806101000a81548160ff021916908360028111156102405761023f610954565b5b02179055506000600260009054906101000a900473ffffffffffffffffffffffffffffffffffffffff1673ffffffffffffffffffffffffffffffffffffffff16600160003373ffffffffffffffffffffffffffffffffffffffff1673ffffffffffffffffffffffffffffffffffffffff168152602001908152602001600020546040516102cc9061074c565b60006040518083038185875af1925050503d8060008114610309576040519150601f19603f3d011682016040523d82523d6000602084013e61030e565b606091505b5050905080610352576040517f08c379a0000000000000000000000000000000000000000000000000000000008152600401610349906107d7565b60405180910390fd5b50565b600260009054906101000a900473ffffffffffffffffffffffffffffffffffffffff1681565b6000600160003373ffffffffffffffffffffffffffffffffffffffff1673ffffffffffffffffffffffffffffffffffffffff16815260200190815260200160002054146103fd576040517f08c379a00000000000000000000000000000000000000000000000000000000081526004016103f490610817565b60405180910390fd5b33600260006101000a81548173ffffffffffffffffffffffffffffffffffffffff021916908373ffffffffffffffffffffffffffffffffffffffff16021790555060016000806101000a81548160ff0219169083600281111561046357610462610954565b5b0217905550565b60008054906101000a900460ff1681565b6000600160003373ffffffffffffffffffffffffffffffffffffffff1673ffffffffffffffffffffffffffffffffffffffff16815260200190815260200160002054116104fd576040517f08c379a00000000000000000000000000000000000000000000000000000000081526004016104f490610797565b60405180910390fd5b6000600281111561051157610510610954565b5b60008054906101000a900460ff16600281111561053157610530610954565b5b14610571576040517f08c379a0000000000000000000000000000000000000000000000000000000008152600401610568906107f7565b60405180910390fd5b60008060006101000a81548160ff0219169083600281111561059657610595610954565b5b021790555034600160003373ffffffffffffffffffffffffffffffffffffffff1673ffffffffffffffffffffffffffffffffffffffff16815260200190815260200160002060008282546105ea919061086e565b92505081905550565b60016020528060005260406000206000915090505481565b60008135905061061a81610ab8565b92915050565b60006020828403121561063657610635610983565b5b60006106448482850161060b565b91505092915050565b610656816108c4565b82525050565b61066581610913565b82525050565b600061067860298361085d565b915061068382610988565b604082019050919050565b600061069b601e8361085d565b91506106a6826109d7565b602082019050919050565b60006106be60148361085d565b91506106c982610a00565b602082019050919050565b60006106e1600f8361085d565b91506106ec82610a29565b602082019050919050565b6000610704600083610852565b915061070f82610a52565b600082019050919050565b600061072760218361085d565b915061073282610a55565b604082019050919050565b61074681610909565b82525050565b6000610757826106f7565b9150819050919050565b6000602082019050610776600083018461064d565b92915050565b6000602082019050610791600083018461065c565b92915050565b600060208201905081810360008301526107b08161066b565b9050919050565b600060208201905081810360008301526107d08161068e565b9050919050565b600060208201905081810360008301526107f0816106b1565b9050919050565b60006020820190508181036000830152610810816106d4565b9050919050565b600060208201905081810360008301526108308161071a565b9050919050565b600060208201905061084c600083018461073d565b92915050565b600081905092915050565b600082825260208201905092915050565b600061087982610909565b915061088483610909565b9250827fffffffffffffffffffffffffffffffffffffffffffffffffffffffffffffffff038211156108b9576108b8610925565b5b828201905092915050565b60006108cf826108e9565b9050919050565b60008190506108e482610aa4565b919050565b600073ffffffffffffffffffffffffffffffffffffffff82169050919050565b6000819050919050565b600061091e826108d6565b9050919050565b7f4e487b7100000000000000000000000000000000000000000000000000000000600052601160045260246000fd5b7f4e487b7100000000000000000000000000000000000000000000000000000000600052602160045260246000fd5b600080fd5b7f4f6e6c79206120626f756e747920736f757263652063616e2063616c6c20746860008201527f6973206d6574686f640000000000000000000000000000000000000000000000602082015250565b7f43616e6e6f7420636f6e6669726d20776974686f75742066756e64696e670000600082015250565b7f455448207472616e73666572206661696c65642e000000000000000000000000600082015250565b7f416c726561647920636c61696d65640000000000000000000000000000000000600082015250565b50565b7f426f756e747920736f757263652063616e6e6f7420636c61696d20626f756e7460008201527f7900000000000000000000000000000000000000000000000000000000000000602082015250565b60038110610ab557610ab4610954565b5b50565b610ac1816108c4565b8114610acc57600080fd5b5056fea26469706673582212207f34eea54a1700bfbd572b2e6aff8cbec2b70ac3eca66829f6028ca0ad427a4b64736f6c63430008070033a264697066735822122072633ef251708c5bfa19bf7c29737df8120e4a6723178a65865627b91dfccf1264736f6c63430008070033",
  "immutableReferences": {},
  "source": "pragma solidity ^0.8.7;\r\nimport './Bounty.sol';\r\n\r\ncontract BountyFactory {\r\n    uint public bountyCount = 0;\r\n    mapping(uint => Bounty) public bounties;\r\n\r\n    constructor() {}\r\n\r\n    event BountyDeployed(\r\n        uint id\r\n    );\r\n\r\n    function deploy() external payable {\r\n        uint index = bountyCount++;\r\n        bounties[index] = (new Bounty){value: msg.value}(msg.sender);\r\n        emit BountyDeployed(index);\r\n    }\r\n}\r\n",
  "sourcePath": "C:/Users/dvarg/Developer/dvargas92495/roamjs-daogigs/src/contracts/BountyFactory.sol",
  "compiler": {
    "name": "solc",
    "version": "0.8.7+commit.e28d00a7.Emscripten.clang"
  },
  "schemaVersion": "3.2.4",
  "updatedAt": "2021-09-19T20:49:30.872Z",
  "networkType": "ethereum",
  "devdoc": {
    "kind": "dev",
    "methods": {},
    "version": 1
  },
  "userdoc": {
    "kind": "user",
    "methods": {},
    "version": 1
  }
}