{
  "contractName": "TokenBounty",
  "abi": [
    {
      "inputs": [
        {
          "internalType": "address",
          "name": "source",
          "type": "address"
        },
        {
          "internalType": "address",
          "name": "token",
          "type": "address"
        }
      ],
      "stateMutability": "payable",
      "type": "constructor"
    },
    {
      "inputs": [],
      "name": "currState",
      "outputs": [
        {
          "internalType": "enum TokenBounty.State",
          "name": "",
          "type": "uint8"
        }
      ],
      "stateMutability": "view",
      "type": "function"
    },
    {
      "inputs": [],
      "name": "hunter",
      "outputs": [
        {
          "internalType": "address",
          "name": "",
          "type": "address"
        }
      ],
      "stateMutability": "view",
      "type": "function"
    },
    {
      "inputs": [
        {
          "internalType": "address",
          "name": "",
          "type": "address"
        }
      ],
      "name": "sources",
      "outputs": [
        {
          "internalType": "uint256",
          "name": "",
          "type": "uint256"
        }
      ],
      "stateMutability": "view",
      "type": "function"
    },
    {
      "inputs": [
        {
          "internalType": "uint256",
          "name": "value",
          "type": "uint256"
        }
      ],
      "name": "fund",
      "outputs": [],
      "stateMutability": "payable",
      "type": "function"
    },
    {
      "inputs": [],
      "name": "claim",
      "outputs": [],
      "stateMutability": "nonpayable",
      "type": "function"
    },
    {
      "inputs": [],
      "name": "confirmBounty",
      "outputs": [],
      "stateMutability": "nonpayable",
      "type": "function"
    }
  ],
  "bytecode": "0x60806040526040516200129c3803806200129c8339818101604052810190620000299190620000fa565b34600160008473ffffffffffffffffffffffffffffffffffffffff1673ffffffffffffffffffffffffffffffffffffffff1681526020019081526020016000208190555060008060006101000a81548160ff0219169083600281111562000095576200009462000175565b5b021790555080600360006101000a81548173ffffffffffffffffffffffffffffffffffffffff021916908373ffffffffffffffffffffffffffffffffffffffff1602179055505050620001c3565b600081519050620000f481620001a9565b92915050565b60008060408385031215620001145762000113620001a4565b5b60006200012485828601620000e3565b92505060206200013785828601620000e3565b9150509250929050565b60006200014e8262000155565b9050919050565b600073ffffffffffffffffffffffffffffffffffffffff82169050919050565b7f4e487b7100000000000000000000000000000000000000000000000000000000600052602160045260246000fd5b600080fd5b620001b48162000141565b8114620001c057600080fd5b50565b6110c980620001d36000396000f3fe6080604052600436106100555760003560e01c8063089fa3ef1461005a5780631602f7b0146100715780634e71d92d1461009c578063afe01043146100b3578063b750bdde146100de578063ca1d209d1461011b575b600080fd5b34801561006657600080fd5b5061006f610137565b005b34801561007d57600080fd5b50610086610597565b6040516100939190610c81565b60405180910390f35b3480156100a857600080fd5b506100b16105bd565b005b3480156100bf57600080fd5b506100c86106ac565b6040516100d59190610cee565b60405180910390f35b3480156100ea57600080fd5b5061010560048036038101906101009190610af1565b6106bd565b6040516101129190610da9565b60405180910390f35b61013560048036038101906101309190610b4b565b6106d5565b005b6000600160003373ffffffffffffffffffffffffffffffffffffffff1673ffffffffffffffffffffffffffffffffffffffff16815260200190815260200160002054116101b9576040517f08c379a00000000000000000000000000000000000000000000000000000000081526004016101b090610d09565b60405180910390fd5b600160028111156101cd576101cc610ec7565b5b60008054906101000a900460ff1660028111156101ed576101ec610ec7565b5b1461022d576040517f08c379a000000000000000000000000000000000000000000000000000000000815260040161022490610d29565b60405180910390fd5b60026000806101000a81548160ff0219169083600281111561025257610251610ec7565b5b02179055506000600160003373ffffffffffffffffffffffffffffffffffffffff1673ffffffffffffffffffffffffffffffffffffffff168152602001908152602001600020549050600360009054906101000a900473ffffffffffffffffffffffffffffffffffffffff1673ffffffffffffffffffffffffffffffffffffffff1663095ea7b3600260009054906101000a900473ffffffffffffffffffffffffffffffffffffffff16836040518363ffffffff1660e01b815260040161031a929190610cc5565b602060405180830381600087803b15801561033457600080fd5b505af1158015610348573d6000803e3d6000fd5b505050506040513d601f19601f8201168201806040525081019061036c9190610b1e565b50600360009054906101000a900473ffffffffffffffffffffffffffffffffffffffff1673ffffffffffffffffffffffffffffffffffffffff1663dd62ed3e30600260009054906101000a900473ffffffffffffffffffffffffffffffffffffffff166040518363ffffffff1660e01b81526004016103ec929190610c9c565b60206040518083038186803b15801561040457600080fd5b505afa158015610418573d6000803e3d6000fd5b505050506040513d601f19601f8201168201806040525081019061043c9190610b78565b811161047d576040517f08c379a000000000000000000000000000000000000000000000000000000000815260040161047490610d69565b60405180910390fd5b600360009054906101000a900473ffffffffffffffffffffffffffffffffffffffff1673ffffffffffffffffffffffffffffffffffffffff1663a9059cbb600260009054906101000a900473ffffffffffffffffffffffffffffffffffffffff16836040518363ffffffff1660e01b81526004016104fc929190610cc5565b602060405180830381600087803b15801561051657600080fd5b505af115801561052a573d6000803e3d6000fd5b505050506040513d601f19601f8201168201806040525081019061054e9190610b1e565b506000600160003373ffffffffffffffffffffffffffffffffffffffff1673ffffffffffffffffffffffffffffffffffffffff1681526020019081526020016000208190555050565b600260009054906101000a900473ffffffffffffffffffffffffffffffffffffffff1681565b6000600160003373ffffffffffffffffffffffffffffffffffffffff1673ffffffffffffffffffffffffffffffffffffffff168152602001908152602001600020541461063f576040517f08c379a000000000000000000000000000000000000000000000000000000000815260040161063690610d89565b60405180910390fd5b33600260006101000a81548173ffffffffffffffffffffffffffffffffffffffff021916908373ffffffffffffffffffffffffffffffffffffffff16021790555060016000806101000a81548160ff021916908360028111156106a5576106a4610ec7565b5b0217905550565b60008054906101000a900460ff1681565b60016020528060005260406000206000915090505481565b6000600160003373ffffffffffffffffffffffffffffffffffffffff1673ffffffffffffffffffffffffffffffffffffffff1681526020019081526020016000205411610757576040517f08c379a000000000000000000000000000000000000000000000000000000000815260040161074e90610d09565b60405180910390fd5b6000600281111561076b5761076a610ec7565b5b60008054906101000a900460ff16600281111561078b5761078a610ec7565b5b146107cb576040517f08c379a00000000000000000000000000000000000000000000000000000000081526004016107c290610d49565b60405180910390fd5b60008060006101000a81548160ff021916908360028111156107f0576107ef610ec7565b5b0217905550600360009054906101000a900473ffffffffffffffffffffffffffffffffffffffff1673ffffffffffffffffffffffffffffffffffffffff1663095ea7b330836040518363ffffffff1660e01b8152600401610852929190610cc5565b602060405180830381600087803b15801561086c57600080fd5b505af1158015610880573d6000803e3d6000fd5b505050506040513d601f19601f820116820180604052508101906108a49190610b1e565b50600360009054906101000a900473ffffffffffffffffffffffffffffffffffffffff1673ffffffffffffffffffffffffffffffffffffffff1663dd62ed3e33306040518363ffffffff1660e01b8152600401610902929190610c9c565b60206040518083038186803b15801561091a57600080fd5b505afa15801561092e573d6000803e3d6000fd5b505050506040513d601f19601f820116820180604052508101906109529190610b78565b811015610994576040517f08c379a000000000000000000000000000000000000000000000000000000000815260040161098b90610d69565b60405180910390fd5b600360009054906101000a900473ffffffffffffffffffffffffffffffffffffffff1673ffffffffffffffffffffffffffffffffffffffff1663a9059cbb30836040518363ffffffff1660e01b81526004016109f1929190610cc5565b602060405180830381600087803b158015610a0b57600080fd5b505af1158015610a1f573d6000803e3d6000fd5b505050506040513d601f19601f82011682018060405250810190610a439190610b1e565b5080600160003373ffffffffffffffffffffffffffffffffffffffff1673ffffffffffffffffffffffffffffffffffffffff1681526020019081526020016000206000828254610a939190610dd5565b9250508190555050565b600081359050610aac8161104e565b92915050565b600081519050610ac181611065565b92915050565b600081359050610ad68161107c565b92915050565b600081519050610aeb8161107c565b92915050565b600060208284031215610b0757610b06610ef6565b5b6000610b1584828501610a9d565b91505092915050565b600060208284031215610b3457610b33610ef6565b5b6000610b4284828501610ab2565b91505092915050565b600060208284031215610b6157610b60610ef6565b5b6000610b6f84828501610ac7565b91505092915050565b600060208284031215610b8e57610b8d610ef6565b5b6000610b9c84828501610adc565b91505092915050565b610bae81610e2b565b82525050565b610bbd81610e86565b82525050565b6000610bd0602983610dc4565b9150610bdb82610efb565b604082019050919050565b6000610bf3601e83610dc4565b9150610bfe82610f4a565b602082019050919050565b6000610c16600f83610dc4565b9150610c2182610f73565b602082019050919050565b6000610c39602983610dc4565b9150610c4482610f9c565b604082019050919050565b6000610c5c602183610dc4565b9150610c6782610feb565b604082019050919050565b610c7b81610e7c565b82525050565b6000602082019050610c966000830184610ba5565b92915050565b6000604082019050610cb16000830185610ba5565b610cbe6020830184610ba5565b9392505050565b6000604082019050610cda6000830185610ba5565b610ce76020830184610c72565b9392505050565b6000602082019050610d036000830184610bb4565b92915050565b60006020820190508181036000830152610d2281610bc3565b9050919050565b60006020820190508181036000830152610d4281610be6565b9050919050565b60006020820190508181036000830152610d6281610c09565b9050919050565b60006020820190508181036000830152610d8281610c2c565b9050919050565b60006020820190508181036000830152610da281610c4f565b9050919050565b6000602082019050610dbe6000830184610c72565b92915050565b600082825260208201905092915050565b6000610de082610e7c565b9150610deb83610e7c565b9250827fffffffffffffffffffffffffffffffffffffffffffffffffffffffffffffffff03821115610e2057610e1f610e98565b5b828201905092915050565b6000610e3682610e5c565b9050919050565b60008115159050919050565b6000819050610e578261103a565b919050565b600073ffffffffffffffffffffffffffffffffffffffff82169050919050565b6000819050919050565b6000610e9182610e49565b9050919050565b7f4e487b7100000000000000000000000000000000000000000000000000000000600052601160045260246000fd5b7f4e487b7100000000000000000000000000000000000000000000000000000000600052602160045260246000fd5b600080fd5b7f4f6e6c79206120626f756e747920736f757263652063616e2063616c6c20746860008201527f6973206d6574686f640000000000000000000000000000000000000000000000602082015250565b7f43616e6e6f7420636f6e6669726d20776974686f75742066756e64696e670000600082015250565b7f416c726561647920636c61696d65640000000000000000000000000000000000600082015250565b7f506c6561736520617070726f766520746f6b656e73206265666f72652074726160008201527f6e7366657272696e670000000000000000000000000000000000000000000000602082015250565b7f426f756e747920736f757263652063616e6e6f7420636c61696d20626f756e7460008201527f7900000000000000000000000000000000000000000000000000000000000000602082015250565b6003811061104b5761104a610ec7565b5b50565b61105781610e2b565b811461106257600080fd5b50565b61106e81610e3d565b811461107957600080fd5b50565b61108581610e7c565b811461109057600080fd5b5056fea2646970667358221220be47cd1a1442ff9d113e555bc7e2c709dbfb231dd4b893dce138b7419e8062d364736f6c63430008070033",
  "immutableReferences": {},
  "source": "// SPDX-License-Identifier: MIT\r\npragma solidity ^0.8.7;\r\n\r\nimport \"../../node_modules/@openzeppelin/contracts/token/ERC20/IERC20.sol\";\r\n\r\ncontract TokenBounty {\r\n  enum State {\r\n    AWAITING_HUNTER,\r\n    AWAITING_DELIVERY,\r\n    COMPLETE\r\n  }\r\n  State public currState;\r\n\r\n  mapping(address => uint256) public sources;\r\n  address public hunter;\r\n  IERC20 tokenType;\r\n\r\n  constructor(address source, address token) payable {\r\n    sources[source] = msg.value;\r\n    currState = State.AWAITING_HUNTER;\r\n    tokenType = IERC20(token);\r\n  }\r\n\r\n  modifier onlySource() {\r\n    require(\r\n      sources[msg.sender] > 0,\r\n      \"Only a bounty source can call this method\"\r\n    );\r\n    _;\r\n  }\r\n\r\n  function fund(uint256 value) external payable onlySource {\r\n    require(currState == State.AWAITING_HUNTER, \"Already claimed\");\r\n    currState = State.AWAITING_HUNTER;\r\n    tokenType.approve(address(this), value);\r\n    require(\r\n      value >= tokenType.allowance(msg.sender, address(this)),\r\n      \"Please approve tokens before transferring\"\r\n    );\r\n    tokenType.transfer(address(this), value);\r\n    sources[msg.sender] += value;\r\n  }\r\n\r\n  function claim() external {\r\n    require(sources[msg.sender] == 0, \"Bounty source cannot claim bounty\");\r\n    hunter = msg.sender;\r\n    currState = State.AWAITING_DELIVERY;\r\n  }\r\n\r\n  function confirmBounty() external onlySource {\r\n    require(\r\n      currState == State.AWAITING_DELIVERY,\r\n      \"Cannot confirm without funding\"\r\n    );\r\n    currState = State.COMPLETE;\r\n    uint256 value = sources[msg.sender];\r\n    tokenType.approve(hunter, value);\r\n    require(\r\n      value > tokenType.allowance(address(this), hunter),\r\n      \"Please approve tokens before transferring\"\r\n    );\r\n    tokenType.transfer(hunter, value);\r\n    sources[msg.sender] = 0;\r\n  }\r\n}\r\n",
  "sourcePath": "C:/Users/dvarg/Developer/dvargas92495/roamjs-daogigs/src/contracts/TokenBounty.sol",
  "compiler": {
    "name": "solc",
    "version": "0.8.7+commit.e28d00a7.Emscripten.clang"
  },
  "schemaVersion": "3.2.4",
  "updatedAt": "2021-09-20T17:51:53.809Z",
  "devdoc": {
    "kind": "dev",
    "methods": {},
    "version": 1
  },
  "userdoc": {
    "kind": "user",
    "methods": {},
    "version": 1
  }
}